:100000000C9434000C9451000C9451000C94510049
:100010000C9451000C9451000C9451000C9451001C
:100020000C9451000C9451000C9451000C9451000C
:100030000C9451000C9451000C9451000C945100FC
:100040000C9451000C9451000C9451000C945100EC
:100050000C9451000C9451000C9451000C945100DC
:100060000C9451000C94510011241FBECFEFD8E026
:10007000DEBFCDBF11E0A0E0B1E0ECEDFDE002C0DD
:1000800005900D92A432B107D9F721E0A4E2B1E0C6
:1000900001C01D92AD34B207E1F70E94F2010C9449
:1000A000EC060C9400001092B9008FE08093B80029
:1000B00084E08093BC00089584EA8093BC0081E1D1
:1000C00097E2ECEBF0E02081222314F00197D9F7BE
:1000D000089584E98093BC0008958093BB0084E870
:1000E0008093BC0081E197E2ECEBF0E020812223D9
:1000F00014F00197D9F7089584EC8093BC0081E156
:1001000097E2ECEBF0E02081222314F00197D9F77D
:100110008091BB00089584E88093BC0081E197E260
:10012000ECEBF0E02081222314F00197D9F78091C5
:10013000BB0008955A9A82E08A95F1F700C05A9858
:100140000895CF93C82F662311F0589A01C058988C
:100150005998549A559A569A579A5F985E985D980E
:100160005C98CC230CF45F9AC6FD5E9AC5FD5D9A3F
:10017000C4FD5C9A0E949A005F985E985D985C98B6
:10018000C3FD5F9AC2FD5E9AC1FD5D9AC0FD5C9A97
:100190000E949A005C9A5D9A5E9A5F9ACF91089548
:1001A000882311F0589A01C05898599A5498559834
:1001B000569857985A9A82E08A95F1F700C04C9B5E
:1001C00002C080E101C080E04D9980624E99806458
:1001D0004F9980685A9892E09A95F1F700C05A9A20
:1001E00092E09A95F1F700C04C9981604D99826038
:1001F0004E9984604F9988605A98089580E00E94D3
:10020000D0008823DCF38AE08A95F1F700C080E013
:100210000E94D0000895CF93C82F0E94FE0060E096
:100220008C2F0E94A100CF910895611104C08058C5
:100230000E940B01089580540E940B01089581E0F3
:100240000E940B01089582E00E940B010895CF9354
:10025000C82F0E94FE00CA3049F4803410F080E0BC
:1002600001C080E480580E940B0104C061E08C2F23
:100270000E94A100CF910895CF93DF93EC012196C6
:10028000FC018081882329F00E9427018991811136
:10029000FBCFDF91CF910895CF93C82F509A519AF9
:1002A000529A549A559A569A579A8FEF9CE701970B
:1002B000F1F700C000005D9A5C9A0E949A008FE0FE
:1002C00097E20197F1F700C000000E949A009AEAB5
:1002D0009A95F1F700C00E949A008AEA8A95F1F790
:1002E00000C05C980E949A009AEA9A95F1F700C0C3
:1002F00088E20E940B0188E00E940B010E941F010E
:1003000086E00E940B018C2F0E940B01CF91089573
:100310001F93CF93DF93182FD62FC42F0E945C001A
:1003200082E20E946D00812F0E946D008D2F0E943D
:100330006D008C2F0E946D000E946900DF91CF91AB
:100340001F910895CF93DF930E945C0082E20E9488
:100350006D008CE00E946D000E9469000E945C00AC
:1003600083E20E946D00C0E0D0E00E947C00FE01AC
:10037000E65DFE4F80832196C730D105B1F70E941C
:100380008B00809331010E946900DF91CF91089525
:1003900080E480937C0084E880937A000895ECE701
:1003A000F0E09081907F8770892B8083EAE7F0E00E
:1003B000808180648083808184FFFDCFEAE7F0E064
:1003C0008081806180838091780090917900089588
:1003D0008AE0EFE1FEE43197F1F700C000008150C0
:1003E000C1F70895CF93DF93CDB7DEB7A5970FB6CA
:1003F000F894DEBF0FBECDBF8FEF84B98CE00E94B2
:100400004C010E94C8010E94530043E060EC82E06E
:100410000E9488014DE060EC82E00E94880140ED7E
:100420006CE083E00E9488011F928AE08F931F9204
:100430008CE58F9382E091E09F938F938E010F5F05
:100440001F4F1F930F930E9402040E941F010E94DE
:100450002301C8010E943C014FED68E885E00E943D
:1004600088011A8A198A87E0FE017396DF01282F16
:100470001D922A95E9F71B8E1A8E3996DF011D927F
:100480008A95E9F70FB6F894DEBF0FBECDBF0F2EE9
:10049000F9E9AF2EF3E0BF2EF02D812C912C0F2E19
:1004A000FAE2CF2EF1E0DF2EF02D7E01F2E2EF0E28
:1004B000F11C412C512C18013E0133E2630E711CDA
:1004C0000E94A201D60112968C911297807F09F0AA
:1004D00062C013968C911397837090E0880F991FD8
:1004E00016962C911697E1E1F0E0EC0FFD1FE80F56
:1004F000F91F308132130AC016962C91EAE1F0E020
:10050000EC0FFD1FE80FF91F208309C0F6012681BB
:10051000E1E1F0E0EC0FFD1FE80FF91F20830196E9
:10052000D60117962C911797E1E1F0E0EC0FFD1F33
:10053000E80FF91F308132130AC017962C91EAE1B7
:10054000F0E0EC0FFD1FE80FF91F208309C0F60152
:100550002781E1E1F0E0EC0FFD1FE80FF91F208398
:10056000FE017A9621E030E081919FEB980F9A315D
:1005700020F0803211F0242D352DEE15FF05A1F766
:100580002130310541F461E080E00E941501CE0187
:100590004A960E943C0180E00E94CF01909329017D
:1005A000809328010E94E80180E00E94CF018C0125
:1005B000909329018093280181E00E94CF019093BC
:1005C0002701809326010E94E80181E00E94CF016B
:1005D000FC01909327018093260125E1209FC00113
:1005E000219F900D11246FEF73E00E94DF038B01B8
:1005F000000F111F660F771F660F771F660F771F9B
:100600009801260F371FAF01440F551FCF01880FE8
:10061000991F880F991F880F991F840F951F6FEFDF
:1006200073E00E94DF038B010A591C4F020F131F56
:1006300080169106F1F0ACEBB0E01C920E945300E2
:1006400061E080E00E9415018CE091E00E943C0195
:10065000B80166567340462F4295440F440F407CC4
:10066000405F769567957695679583E00E9488014F
:10067000580182E00E94CF019093250180932401CC
:100680000E94E80182E00E94CF01909325018093AF
:1006900024014FE0489F9001499F300D1124C9016A
:1006A0006FEF73E00E94DF0360930101809100010E
:1006B000861781F0ECEBF0E010820E94530040912D
:1006C000010140930001406D4093010168E885E01D
:1006D0000E9488011BA21CA21DA29501ADECBCECDE
:1006E0000E94F3039695879596958795969587959D
:1006F000AC01440F551F9C01220F331F220F331FE3
:10070000220F331F240F351FA501421B530B9A01E3
:10071000220F331F440F551F440F551F440F551F01
:10072000240F351F3F932F939F938F9322E031E047
:100730003F932F933F922F920E94020460E080E04B
:100740000E941501C1010E943C0161E08AE00E9403
:100750001501809100010FB6F894DEBF0FBECDBF2A
:100760008A30B0F41F928F9385E191E09F938F932D
:100770007F926F920E940204C3010E943C010E947A
:10078000E8010F900F900F900F900F900F9015C0F1
:100790001F928F93EDE1F1E0FF93EF937F926F92C1
:1007A0000E940204C3010E943C010E94E8010F90D4
:1007B0000F900F900F900F900F90480181CEAA1BC1
:1007C000BB1B51E107C0AA1FBB1FA617B70710F03C
:1007D000A61BB70B881F991F5A95A9F7809590956E
:1007E000BC01CD010895A29FB001B39FC001A39F9A
:1007F000700D811D1124911DB29F700D811D11245A
:10080000911D0895AEE0B0E0E8E0F4E00C94C3067A
:100810000D891E8986E08C831A8309838FEF9FE7F9
:100820009E838D83AE01475E5F4F6F89788DCE01C9
:1008300001960E942404EF81F885E00FF11F1082D9
:100840002E96E4E00C94DF06ABE0B0E0EAE2F4E0E0
:100850000C94B5066C017B018A01FC01178216829B
:10086000838181FFCCC1CE0101963C01F6019381C9
:10087000F70193FD859193FF81917F01882309F40E
:10088000BAC1853239F493FD859193FF81917F013F
:10089000853229F4B60190E00E941B06E7CF912C27
:1008A000212C312CFFE1F315D8F08B3279F038F49C
:1008B000803279F08332A1F4232D20611DC08D3266
:1008C00061F0803369F4232D216016C0832D82608E
:1008D000382EE32DE4603E2E2AC0F32DF8601DC0B3
:1008E00037FC2DC020ED280F2A3040F08E32B9F4AD
:1008F00036FC81C1232D2064322E19C036FE06C07D
:100900008AE0989E200D1124922E11C0EAE02E9EBE
:10091000200D1124222EF32DF0623F2E08C08C36BC
:1009200021F4832D8068382E02C0883641F4F70107
:1009300093FD859193FF81917F018111B3CF982F12
:100940009F7D9554933028F40C5F1F4F9FE399834C
:100950000DC0833631F0833771F0833509F059C00B
:1009600021C0F801808189830E5F1F4F8824839402
:10097000912C530113C02801F2E04F0E511CF801D5
:10098000A080B18036FE03C0692D70E002C06FEF19
:100990007FEFC5010E9410064C018201F32DFF7705
:1009A0003F2E16C0280122E0420E511CF801A08003
:1009B000B18036FE03C0692D70E002C06FEF7FEF9B
:1009C000C5010E9405064C01F32DF0683F2E8201FF
:1009D00033FC1BC0822D90E088169906B0F4B60156
:1009E00080E290E00E941B062A94F4CFF50137FCC8
:1009F000859137FE81915F01B60190E00E941B0650
:100A000021102A9421E0821A91088114910471F72F
:100A1000E8C0843611F0893641F5F80137FE07C089
:100A200060817181828193810C5F1F4F08C060815A
:100A30007181072E000C880B990B0E5F1F4FF32D51
:100A4000FF763F2E97FF09C0909580957095619530
:100A50007F4F8F4F9F4FF0683F2E2AE030E0A30179
:100A60000E945706882E861845C0853731F4232DFD
:100A70002F7EB22E2AE030E025C0932D997FB92E2B
:100A80008F36C1F018F4883579F0B5C0803719F089
:100A9000883721F0B0C0E92FE061BE2EB4FE0DC052
:100AA000FB2DF460BF2E09C034FE0AC0292F26603A
:100AB000B22E06C028E030E005C020E130E002C0E0
:100AC00020E132E0F801B7FE07C0608171818281C8
:100AD00093810C5F1F4F06C06081718180E090E0C0
:100AE0000E5F1F4FA3010E945706882E8618FB2D0C
:100AF000FF773F2E36FE0DC0232D2E7FA22E8914A8
:100B000058F434FE0BC032FC09C0832D8E7EA82E13
:100B100005C0B82CA32C03C0B82C01C0B92CA4FE6E
:100B20000FC0FE01E80DF11D8081803321F49A2D64
:100B3000997EA92E09C0A2FE06C0B394B39404C046
:100B40008A2D867809F0B394A3FC11C0A0FE06C0DC
:100B5000B21488F4280C922C9B180EC0B21460F4C6
:100B6000B60180E290E00E941B06B394F7CFB21466
:100B700018F42B1802C0982C212CA4FE10C0B6012A
:100B800080E390E00E941B06A2FE17C0A1FC03C0F8
:100B900088E790E002C088E590E0B6010CC08A2D9D
:100BA000867859F0A1FE02C08BE201C080E2A7FC6A
:100BB0008DE2B60190E00E941B06891438F4B6015C
:100BC00080E390E00E941B069A94F7CF8A94F30189
:100BD000E80DF11D8081B60190E00E941B06811096
:100BE000F5CF222009F442CEB60180E290E00E94C7
:100BF0001B062A94F6CFF6018681978102C08FEFFB
:100C00009FEF2B96E2E10C94D106FC010590615018
:100C100070400110D8F7809590958E0F9F1F089512
:100C2000FC016150704001900110D8F780959095BB
:100C30008E0F9F1F08950F931F93CF93DF93FB0198
:100C4000238121FD03C08FEF9FEF2CC022FF16C030
:100C500046815781248135814217530744F4A0818E
:100C6000B1819D012F5F3F4F318320838C9326817B
:100C700037812F5F3F4F3783268314C08B01EC01F0
:100C8000FB010084F185E02D0995892BE1F6D8015F
:100C900016968D919C911797019617969C938E931B
:100CA0001697CE01DF91CF911F910F910895FA0110
:100CB000AA27283051F1203181F1E8946F936E7F9B
:100CC0006E5F7F4F8F4F9F4FAF4FB1E03ED0B4E08C
:100CD0003CD0670F781F891F9A1FA11D680F791FCD
:100CE0008A1F911DA11D6A0F711D811D911DA11DDE
:100CF00020D009F468943F912AE0269F11243019EE
:100D0000305D3193DEF6CF010895462F4770405D88
:100D10004193B3E00FD0C9F7F6CF462F4F70405D37
:100D20004A3318F0495D31FD4052419302D0A9F792
:100D3000EACFB4E0A6959795879577956795BA958C
:100D4000C9F700976105710508959B01AC010A2E52
:100D500006945795479537952795BA95C9F7620F29
:100D6000731F841F951FA01D08952F923F924F92CD
:100D70005F926F927F928F929F92AF92BF92CF922B
:100D8000DF92EF92FF920F931F93CF93DF93CDB734
:100D9000DEB7CA1BDB0B0FB6F894DEBF0FBECDBFAC
:100DA00009942A88398848885F846E847D848C847D
:100DB0009B84AA84B984C884DF80EE80FD800C8186
:100DC0001B81AA81B981CE0FD11D0FB6F894DEBF69
:0C0DD0000FBECDBFED010895F894FFCFD9
:100DDC00080825642E2564204D687A0020202020E8
:100DEC002020202000566F6C3A20256400566F6C32
:040DFC003A25640030
:00000001FF
